:020000040800F2
:10000000A051002031020008CF310008BD2D0008AA
:10001000CD310008311200086B35000800000000E7
:10002000000000000000000000000000D3310008C4
:10003000F112000800000000D1310008D53100089D
:100040004B0200084B0200084B0200084B0200085C
:100050004B0200084B0200084B0200084B0200084C
:100060004B0200084B0200084B0200084B0200083C
:100070004B0200084B0200084B0200084B0200082C
:10008000351200084B0200084B0200084B02000822
:100090004B0200084B0200084B0200084B0200080C
:1000A0004B0200084B0200084B0200084B020008FC
:1000B0004B0200084B0200084B0200084B020008EC
:1000C0004B0200084B0200084B0200084B020008DC
:1000D0004B0200084B0200084B0200084B020008CC
:1000E0004B0200084B0200084B0200084B020008BC
:1000F0004B0200084B0200084B0200084B020008AC
:100100004B0200084B0200084B0200084B0200089B
:100110004B0200084B0200087D3200084B02000829
:10012000411200084B0200084B0200084B02000875
:100130004B0200084B0200084B0200084B0200086B
:100140004B0200084B0200084B0200084B0200085B
:100150004B0200084B0200084B0200084B0200084B
:100160004B0200084B0200084B0200084B0200083B
:100170004B0200084B0200084B0200080000000080
:100180004B0200084B02000800F002F800F041F8B2
:100190000AA090E8000C82448344AAF10107DA45E2
:1001A00001D100F036F8AFF2090EBAE80F0013F0F3
:1001B000010F18BFFB1A43F001031847741901001F
:1001C00094190100103A24BF78C878C1FAD85207B0
:1001D00024BF30C830C144BF04680C6070470000C1
:1001E0000023002400250026103A28BF78C1FBD840
:1001F000520728BF30C148BF0B607047642900F028
:10020000FD80002070471FB506F0BCF81FBD10B57B
:1002100010BD00F01DFA1146FFF7F5FF06F02AF8B1
:1002200000F03BFA03B4FFF7F2FF03BC00F03EFA24
:100230000948804709480047FEE7FEE7FEE7FEE77A
:10024000FEE7FEE7FEE7FEE7FEE7FEE704480549B6
:10025000054A064B704700006D320008890100080E
:10026000A04B0020A0510020A04D0020A04D002058
:1002700053EA020C00F069802DE9F04B4FF00006C4
:10028000002B1FBFB3FA83F503FA05F424FA05F631
:100290005E4012BF1643B2FA82F502FA05F4C5F1C8
:1002A00020051EBF22FA05FC44EA0C04203556EA5C
:1002B000044C4FEA144418BF641C4FF000084FF080
:1002C0000009904271EB030C39D3002919BFB1FA30
:1002D00081F701FA07F6B0FA80F700FA07F6C7F1DE
:1002E00020071EBF20FA07FC46EA0C062037B6FBA3
:1002F000F4FCA7EB0507103F07F01F0BCBF120061E
:100300000CFA0BFB2CFA06F644BFB3460026202F4E
:10031000A4BF5E464FF0000B5BEA060C08BF4FF02F
:10032000010B19EB0B09ABFB027C48EB0608C01B69
:1003300006FB02CC0BFB03CC71EB0C01C1E70B46B7
:10034000024641464846BDE8F08B13B54FF0000029
:100350004FF00001AFF30080BDE81C407047000083
:100360000FB41CB50C0007AA009001D02044401E19
:10037000074B7B4469460190069800F040F9002C39
:1003800003D06946002000F04DF91CBC5DF814FB59
:10039000B90200002DE9F0410E460446002020621B
:1003A0002046E168884730B3252805D0D4E90121EB
:1003B0009047206A401CF2E7E16820460027884702
:1003C000050018D0A5F14100192802D820354FF4B6
:1003D00000673246294620462760FFF70FFF40B1ED
:1003E000012804D0F61D26F007060836D8E7361D8A
:1003F000D6E72846DAE7206ABDE8F0812DE9F0412A
:100400000646002410687529314616A510D0AFF3B2
:100410000080002802DA404213A507E031688A070D
:1004200001D512A502E0490704D511A5012401E078
:10043000AFF3008000210A2206F1240709E0B0FB97
:10044000F2FCB0FBF2F302FB1C003030785418468B
:10045000491C0028F3D123462A463046BDE8F04126
:1004600000F06FB8000000002D0000002B0000001D
:100470002000000010B5203AC0F00B80B1E8185001
:10048000203AA0E81850B1E81850A0E81850BFF47E
:10049000F5AF5FEA027C24BFB1E81850A0E818501D
:1004A00044BF18C918C0BDE810405FEA827C24BF71
:1004B00051F8043B40F8043B08BF7047D20728BFFF
:1004C00031F8023B48BF11F8012B28BF20F8023B4E
:1004D00048BF00F8012B70474FF0000200B51346EB
:1004E00094469646203922BFA0E80C50A0E80C5054
:1004F000B1F12001BFF4F7AF090728BFA0E80C5005
:1005000048BF0CC05DF804EB890028BF40F8042BFD
:1005100008BF704748BF20F8022B11F0804F18BF6A
:1005200000F8012B704770477047704710B500F016
:1005300087F8006810BD10B5044600F081F804602B
:1005400010BD2DE9F0470D4699469246044600F14C
:1005500024080168880604D5E06921F010012160B3
:1005600000E00120A84201DD471B00E00027A1694F
:100570007A1902EB0900081AA0612078C00602D49B
:100580002046AFF30080002608E0D4E901211AF8E4
:1005900006009047206A401C761C20624E45F4DB22
:1005A0002078C0060AD52046AFF3008006E0D4E9E3
:1005B000012130209047206A401C2062381EA7F19C
:1005C0000107F4DC07E0D4E9012118F805009047A1
:1005D000206A401C2062281EA5F10105F3DC20469C
:1005E000AFF300802078000602D50220BDE8F08736
:1005F0000120FBE701694A1C02610878704700B5D9
:100600008FB0CDE901310021059105497944CDE94B
:10061000031011466846FFF7BDFE0FB000BD000095
:10062000E5FFFFFF0A6802F8010B0A607047D1E995
:1006300000239A4202D2531C0B60107070470000D6
:1006400000487047404B002000487047404B002056
:100650007546FFF7F9FFAE4605006946534620F0A0
:100660000700854618B020B5FFF7F0FDBDE8204033
:100670004FF000064FF000074FF000084FF0000B5E
:1006800021F00701AC46ACE8C009ACE8C009ACE811
:10069000C009ACE8C0098D46704710B50446AFF3F9
:1006A00000802046BDE81040FFF7BCBD014918207E
:1006B000ABBEFEE726000200704700002DE9F04FB8
:1006C00081B001266FF001044FEA510E06EB51078D
:1006D00004EB51084FEA420900240025009700BFAF
:1006E000AEB2B4424FEA44052BD250F8361050F85F
:1006F0002570F20040F8251045F00101043240F861
:100700003670875850F821A040F8217040F802A0B8
:10071000009AA118324450F831B050F832704FEAC4
:10072000C10A4FEAC20C40F8317040F832B00AF109
:1007300004010CF10402875850F801C0475040F8FA
:1007400002C006EB0E0100EB850650F83170D6E9C9
:10075000025A4FEAC10CB7600CF1040740F831505F
:10076000A11CC2591D888CB244454B44F26040F82C
:1007700007A0B5D901B0BDE8F08F70B50446807808
:1007800025886268A38901280E4606D194ED040AE3
:100790003046294600F0B4FA03E03046294600F01E
:1007A00001F9E078012818BF70BD2188E289A368AB
:1007B0003046BDE87040FFF781BF000049F6303C8D
:1007C000827049F22E32C0F6000CC370C0F60002EF
:1007D000FF294FF0FF030180C0F804C00DDDB1F523
:1007E000807F13D0B1F5805F15D0B1F5806F22D135
:1007F0009FED160A0632042117E010290FD0402978
:1008000019D19FED100A7E3240210EE09FED0E0AB5
:100810001E32102109E09FED090A012105E09FED3C
:10082000080A02F5FF724FF4807100238181C181B3
:10083000826080ED040A58B2704700BF0000803922
:100840000000803D0000803C0000803B0000803ABA
:100850002DE9F04381B02DED028B0C46002190462E
:10086000B1EB920F054674D04FEA980795ED000A58
:1008700095ED011A20EE000A21EE011A30EE018AF0
:10088000B0EE480A02F082FEB4EE400AF1EE10FA31
:1008900049D684ED000A95ED020A95ED031A20EE83
:1008A000000A21EE011A30EE018AB0EE480A02F089
:1008B0006DFEB4EE400AF1EE10FA39D684ED010A6D
:1008C00095ED040A95ED051A20EE000A21EE011AB5
:1008D00030EE018AB0EE480A02F058FEB4EE400A4B
:1008E000F1EE10FA29D684ED020A95ED060A95ED8F
:1008F000071A20EE000A21EE011A30EE018AB0EE4E
:10090000480A05F1200904F1100602F03FFEB4EE9A
:10091000400AF1EE10FA15D684ED030A013F4D4668
:100920003446A3D113E0B0EE480A02F02FFEB0E740
:10093000B0EE480A02F02AFEC0E7B0EE480A02F024
:1009400025FED0E7B0EE480A02F020FEE4E7344688
:100950004D4618F0030620D095ED000A95ED011ADA
:1009600020EE000A21EE011A30EE018AB0EE480AAC
:10097000271D02F00BFEB4EE400AF1EE10FA07D686
:1009800084ED000A013E05F108053C46E4D104E08F
:10099000B0EE480A02F0FAFDF2E7BDEC028B01B0BE
:1009A000BDE8F0832DE9F04F88B04FEA91094FEA96
:1009B000091609EB490706964FEAC906FF00CDE97B
:1009C0000462161D03EB43020797071D4FEA031A43
:1009D0004FEAC30B4FEAC20C344632461D4603931E
:1009E000CDF80090049B17ED010AFD18069B97EDCA
:1009F000001A07EB030E079B15ED012A07EB03080E
:100A000095ED003A1EED014A9EED005A18ED016A7F
:100A100098ED007A70EE040A72EE061A71EE052A5D
:100A200073EE073A32EE462A31EE451A30EEA15AFD
:100A300032EEA36A52ED014A30EE440A92ED004ACA
:100A400033EE473A07ED015A87ED006A30EE035A5C
:100A500031EE426A30EEE17A72EEE30A30EE430A9A
:100A600031EE021A14ED012A94ED003A56ED011A06
:100A7000D6ED002A65EE023A26EE022A26EE036A39
:100A800025EE033A27EE245A64EEA04A60EE840A6B
:100A900027EE044A20EE217A61EE211A21EE221A75
:100AA00020EE220A33EE866A32EE432A35EE203AF1
:100AB00034EEC44A37EE011A31EEC00AB9F1010929
:100AC00007F1080752445C44664405ED013A85EDA0
:100AD000004A0EED016A8EED002A08ED011A88ED3C
:100AE000000A7FF47FAF1429C0F0C180009D0190FF
:100AF0002A4600BF0492039AAB089200039292B276
:100B000007924FF0FF3202EB9502069203EB43028D
:100B1000D700DA00EE00141D4FEA031E4FF0000C60
:100B200002464FF0000902939046059A4FEAC90326
:100B300002EBC90090ED000A181D104490ED001A58
:100B400002EB09104FEA091390ED002A181D10441A
:100B500090ED003A09EB490002EBC003C0000430FD
:100B6000104493ED004A90ED005A42464046E0465C
:100B700000EB040A00EB0E0BC31990ED006A1AEDAE
:100B8000017ADBED000AD3ED001A76EE602A36EE2C
:100B9000206A77EE610A37EE217AD0ED011ADAED9C
:100BA000003ADBED014AD3ED015A71EEE46A71EED1
:100BB000A41A73EEE54A73EEA53A72EEA45A72EEE9
:100BC000E42A76EEE04A76EEA00A76EE476A36EE42
:100BD000076A31EEE37A71EEA31A80ED006AC0ED88
:100BE000011A20EE256A61EE241A31EE866A60EE63
:100BF000241A61EE253A71EEE31A62EE263A63EEAC
:100C0000074A73EEA43A22EE077A63EE264A37EEDD
:100C1000647A64EE224A65EE205A64EE200A65EE9C
:100C2000222AA84475EEA44A70EEE20A88453044B0
:100C30004AED013A8AED007A8BED006ACBED011A9C
:100C4000C3ED004AC3ED010A92D307980CF1010CE1
:100C500081440698083284457FF666AF04981328CD
:100C60004FEA90000246DDE901053FF643AF0099E7
:100C700090ED000A90ED011A90ED022A90ED033AF2
:100C800090ED044A90ED055A90ED066A90ED077AD2
:100C900070EE040A30EE440A31EE054A31EE451A90
:100CA00032EE065A73EE071A32EE462A33EE473A10
:100CB00030EE856A34EE217A30EEC55A34EE614A60
:100CC00070EE030A71EE421A30EE430A31EE021A58
:100CD00080ED006A80ED017A80ED025A80ED034AD2
:100CE000C0ED040AC0ED051A80ED060A80ED071A72
:100CF000013900F12000BBD108B0BDE8F08F000041
:100D00002DE9F04F88B04FEA91094FEA091609EB37
:100D1000490706964FEAC906FF00CDE90462161D91
:100D200003EB43020797071D4FEA031A4FEAC30B71
:100D30004FEAC20C344632461D460393CDF800906C
:100D4000069B17ED011AFD18049B97ED002A07EB8F
:100D50000308079B15ED013A07EB030E95ED004ADA
:100D600018ED015A98ED006A1EED017ADEED000AD9
:100D700071EE031A75EE072A72EE043A76EE204AF7
:100D800035EE475A32EE442A36EE604A31EEA26A18
:100D900033EEA47A52ED015A31EE431A92ED003A45
:100DA00007ED016A87ED007A31EE446A32EE057A8A
:100DB00071EEE20A73EEE41A31EE041A32EE452ABD
:100DC00014ED014A94ED005A56ED012AD6ED003A91
:100DD00066EE044A27EE044A27EE057A26EE055A07
:100DE00020EEA56A65EEA15A61EE831A20EE833AE1
:100DF00061EE220A62EE222A22EE232A21EE231A33
:100E000034EEC77A34EE054A36EE615A35EE833A4F
:100E100030EEC22A32EE811AB9F1010907F1080752
:100E200052445C44664408ED015A88ED003A05EDF1
:100E3000017A85ED004A0EED012A8EED001A7FF44D
:100E40007FAF1429C0F0C180009D01902A4600BFE9
:100E50000492039AAB089200039292B207924FF069
:100E6000FF3202EB9502069203EB4302D700DA0051
:100E7000EE00141D4FEA031E4FF0000C02464FF027
:100E8000000902939046059A4FEAC90302EBC90094
:100E900090ED001A181D104490ED002A02EB091085
:100EA0004FEA091390ED003A181D104490ED004AE6
:100EB00009EB490002EBC003C0000430104493ED7D
:100EC000005A90ED006A42464046E04600EB040AB4
:100ED00000EB0E0BC31990ED007A5AED010ADBED21
:100EE000001AD3ED002A77EE613A37EE217A70EEE0
:100EF000E21A70EEA20AD0ED012ADAED004ADBED2B
:100F0000015AD3ED016A72EEE57A72EEA52A74EE0B
:100F1000E65A74EEA64A73EEE56A73EEA53A77EEEA
:100F2000A15A77EEE11A77EE607A37EE207A72EE08
:100F3000E40A72EEA42A80ED007AC0ED012A21EEC7
:100F4000267A62EE252A37EE627A61EE252A62EE73
:100F5000264A72EEA42A63EE274A64EE205A74EE03
:100F6000E54A63EE200A64EE275A75EEA00A65EEA4
:100F7000235A66EE216A65EE211A66EE233AA844EA
:100F800075EEE65A71EEA31A884530444AED014ADF
:100F9000CAED000A8BED007ACBED012AC3ED005AB1
:100FA000C3ED011A92D307980CF1010C8144069805
:100FB000083284457FF666AF049813284FEA900004
:100FC0000246DDE901053FF643AF009990ED001AB6
:100FD00090ED012A90ED023A90ED034A90ED045A0B
:100FE00090ED056A90ED067AD0ED070A71EE051ACC
:100FF00031EE451A32EE065A32EE462A33EE076AD1
:1010000074EE202A33EE473A34EE604A31EE867AA7
:1010100075EE220A31EEC66A35EE625A71EE441A56
:1010200072EE032A31EE041A32EE432A27EE003A1A
:1010300020EE804A26EE006A25EE005A21EE807AE4
:1010400062EE800A21EE001A22EE002A80ED003ABC
:1010500080ED014A80ED026A80ED035A80ED047A4A
:10106000C0ED050A80ED061A80ED072A013900F16E
:101070002000ABD108B0BDE8F08F10B50146806B01
:10108000026C12F0500F05D0026CD20626D500F08B
:10109000D1FA10BD016C41F40071016401688A68E5
:1010A00012F0405F17D1027EAAB9CA6A12F4700F1B
:1010B00002D08A6852050ED44A6822F020024A60A3
:1010C000016C21F480710164016CC90403D4016CCA
:1010D00041F00101016400F0ABFA10BD806BC26CFD
:1010E000BDE810400846104710B5806B40210164F0
:1010F000416C41F00401416400F09CFA10BD10B550
:10110000806B00F096FA10BD464910B54A6822F48B
:1011100040324A604A6843681A434A6001684A6834
:1011200022F480724A6001684A68036942EA032235
:101130004A6001684A6822F040724A6001684A6861
:1011400083681A434A6001688A6822F400628A60F0
:1011500001688A68C3681A438A60816A6FF07062A6
:10116000D14201688A6822F070628A6001688A68E8
:101170000CD0836A1A438A6001688A6822F0405260
:101180008A6001688A68C36A1A4301E022F040520B
:101190008A6001688A6822F002028A6001688A68AF
:1011A000037E42EA43028A6090F820100029016819
:1011B0004A680FD042F400624A6001684A6822F42B
:1011C00060424A6001684A68174C436A04EB433343
:1011D0001A4301E022F400624A600168CA6A22F4FC
:1011E0007002CA620168CA6A838B104C04EB035315
:1011F0001A43CA6201688A6822F400728A60016830
:101200008A6890F8303042EA43228A6001688A682E
:1012100022F480628A6001688A68406942EA80201C
:10122000886010BD0023014000E0FFFF0000F0FFD8
:10123000FEE70000014800F0E9BB0000EC000020E0
:10124000014800F0E3BB000078000020016818238B
:10125000CAB2103AB2FBF3F2054B6FF30901032A4D
:101260009B5CC36500D9091D816508467047000075
:101270008E63000810B5014600208B698A6A4FF022
:10128000C07453B1B3F5005F15D072B1012A0CD010
:10129000022A0AD0032A09D104E01AB1012A06D091
:1012A000022A03D1C96AC90100D5012010BDC96A4B
:1012B000A142FAD010BD002AF7D0012AF2D0022AAA
:1012C000F3D0032AF3D010BD30B50468256825F4A7
:1012D00080252560046863608368402B036803D021
:1012E00099600068C26030BD9A600068C16030BD1E
:1012F000704700002DE9F04F82462DED028B81B042
:101300001D4691469FED2D8A00200D9E0CE00C9A03
:1013100002EB800292ED000AB4EEC80AF1EE10FA78
:1013200001DDB0EE408A401CB042F0D3B5EEC08A79
:10133000F1EE10FA01D1B7EE008A4FF6FF7000907F
:101340000AEB090001EB050B82B21FFA8BF3504642
:1013500002F036FA00242AE004FB09F0B0FBF6F1B3
:1013600001EB0A001FFA80F80C9800EE105A00EB0F
:101370008400B8EE400AD0ED000A20EE800AC0EEEC
:10138000080ABCEEE00A10EE100AABEB000087B2D0
:1013900044B11F2000900A483B464246818840885D
:1013A00002F0ACF90648641CA0F802808780B442C1
:1013B000D2D301B0BDEC028BBDE8F08F000000007D
:1013C0000000002072B6FEE710B501239C02002247
:1013D00021460648FFF7F2F9054801F023FB2246B3
:1013E000BDE810400349044800F09CB9C80A002039
:1013F00038020020C80200203000002030B5B3F5CC
:10140000804F05D06FF0704140F82210002030BDB1
:101410008C690B688D6823434C688989240144EAF0
:101420000524234343EA014150F82230014C234074
:101430001943E9E70000F0CF10B50A6850F82230F0
:1014400023F0010340F822308C68082C23D00023BD
:101450004A682243CC681C430B6922431A434B69F8
:101460000E4C1A43CB691A430B6A1A434B6A1A4350
:101470008B6A1A43CB6A1A430B6B1A438B6913436B
:10148000CA6B09681A4350F82130A343134340F84C
:101490002130002010BD4023DAE700007FFF0F005D
:1014A00030B5D1E9003443EA04138C688D892402F5
:1014B00044EA054423430C8A094D00EB820005EB06
:1014C000045423430C7D6D0105EB046489692343B7
:1014D0000B43416801F040410B434360002030BDA5
:1014E0000000F0FF78B50024009490F83C20012A19
:1014F00019D0012280F83C200A6807230568092AD0
:1015000013D9EE680A3A02EB420293409E43EE6022
:101510000B788A680A3B03EB43039A400368DD6853
:101520002A43DA6010E0022078BD2E6902EB420205
:1015300093409E432E610B788A6803EB43039A40E5
:1015400003681D692A431A614A681F23072A13D2B8
:1015500005686E6B521E02EB820293409E436E63DF
:101560000B790A885B1E92B203EB83039A400368EF
:101570005D6B2A435A6327E005680D2A12D22E6B51
:10158000D21F02EB820293409E432E630B790A889E
:10159000DB1F92B203EB83039A4003681D6B2A435F
:1015A0001A6311E0EE6A0D3A02EB820293409E4309
:1015B000EE620B790A880D3B92B203EB83039A40EB
:1015C0000368DD6A2A43DA62164B0568144A9D42B5
:1015D00006D10D68122D03D1556845F4800555607C
:1015E00005689D4218D10B68102B01D0112B13D127
:1015F000536843F400035360096810290CD10A4969
:101600000A4A0968B1FBF2F101EB8101490000E0EF
:10161000491E00910029FBD180F83C40002078BD94
:1016200000230140002001402400002040420F0020
:1016300070477047704770B504004FF0000503D045
:10164000206C002610B107E0012070BD204600F09C
:101650001DF8666484F83C60206CC00610D4206CD1
:1016600020F4885040F0020020642046FFF74CFD33
:101670006664206C20F0020040F00100206400E06D
:10168000012584F83C60284670BD000070B586B026
:10169000064614216846FEF71FFF1D493068884240
:1016A00034D11C480025016841F480710160006854
:1016B00000F48070059017481438016841F001016A
:1016C00001600068694600F001000590022000906A
:1016D0000320CDE90105104800F070FB104C0F48C5
:1016E000C4E900050015A560C4E90350400060612D
:1016F0008000A0614011C4E907052046656200F042
:1017000055FA08B1FFF75EFEB463A66306B070BD7C
:1017100000200140443802400000024010640240B2
:1017200078000020F8B5044600200E46009094F89A
:101730003C10012907D0012184F83C1021688B68F6
:10174000DB0702D011E00220F8BD8B6843F00103F3
:101750008B604049404B0968B1FBF3F101EB41015B
:1017600000E0491E00910029FBD121688B68DB0550
:1017700003D58B6823F480738B6021688B68DB074B
:101780005DD0236C40F20165AB4343F48073236466
:101790004968490505D5216C21F4005141F4805177
:1017A0002164216CC90404D5616C21F006016164D7
:1017B00000E0606484F83C00A16B2948274DC863B1
:1017C000A16B28480864A16B2748C86421686FF0A2
:1017D000220008602068416841F080614160206813
:1017E000816841F4807181602168134632464C3132
:1017F000A06B00F045FA68681C49C006206806D056
:10180000884224D1816811F0405F13D01FE08842E4
:10181000F8D0174A904203D1D1F80423D206F1D070
:10182000144A904213D1D1F8041301F01F0110297A
:10183000E8D30CE0816841F08041816007E0206CD2
:1018400040F010002064606C40F0010060640020F3
:10185000F8BD00002400002040420F00002301409A
:101860007B100008FF100008E9100008002001406C
:101870000021014000220140704770B500B3F9B16A
:101880004379012B1ED0012646710223037105689E
:101890002C6802F0100340F6FE729A409443D1E99E
:1018A00000210A439A4022432A6001680A68C02442
:1018B0009C40A2430A60067100214171084670BD38
:1018C000012070BD022070BD70472DE9F041044633
:1018D00000680668456BB1044FF0040710D5A904F1
:1018E0000ED52771216941F001012161F90241639F
:1018F0002068016821F4805101602046FFF7E4FF71
:10190000B00014D5A80012D52771206940F002005C
:10191000206121684FF0005048632068016821F081
:10192000805101602046BDE8F041FFF7A5BFBDE84A
:10193000F08170B5040003D02079002510B105E0D6
:10194000012070BD6571204600F008F8022020716A
:10195000256101202071002070BD000070B586B0A7
:10196000054614216846FEF7B7FD234928688842DA
:101970003FD122480026016841F000510160006813
:1019800000F0005005901D481038016841F0010139
:1019900001600068694600F0010005901020009089
:1019A0000320CDE90106164800F008FA164C154848
:1019B00020604FF0606060604020C4E902060001D2
:1019C0002061400060618000A0614011C4E9070609
:1019D0002046666200F0EAF808B1FFF7F3FCAC605D
:1019E000002201213620A56300F04CFC362000F0D7
:1019F0003BFC06B070BD000000740040403802405F
:101A00000000024088600240EC0000202DE9F8430D
:101A100004464FF00009CDF8009063484FF416518A
:101A2000A56D0068B0FBF1F72E6894F85C100820F3
:101A300000FA01F131420FD021680A6852070BD534
:101A40000A6822F004020A6094F85C108840A860DA
:101A5000606D40F00100606594F85C104FF0010883
:101A600008FA01F0304208D021684969090604D516
:101A7000A860606D40F00200606594F85C1004207E
:101A80008840304208D021680968890704D5A860D9
:101A9000606D40F00400606594F85C101020884090
:101AA000304218D021680968090714D5A860206859
:101AB0000168490304D50068000308D5A16C07E05C
:101AC0000168C90503D4016821F008010160216C97
:101AD00009B12046884794F85C10202088403042A5
:101AE00031D021680968C9062DD5A86094F8350061
:101AF00005282068016806D0490347D5006800031F
:101B00001DD4616C1CE021F0160101602068416960
:101B100021F080014161206C08B9A06C20B12068DF
:101B2000016821F00801016094F85C103F208840B2
:101B3000A86084F8358084F83490216D1FE0E16B53
:101B400009B120468847606D00282BD0606DC00722
:101B500014D0052084F835002068016821F00101C7
:101B600001600098401C0090B84203D820680068CB
:101B7000C007F6D184F8358084F83490E16C0029F0
:101B800010D001B02046BDE8F04308470168C90500
:101B9000D5D4016821F01001016084F8358084F803
:101BA0003490CCE7BDE8F883240000202DE9F04113
:101BB000044600F001FA06465CB1022084F83500C4
:101BC000002584F834502068016821F0010101608B
:101BD0000DE00120BDE8F08100F0EEF9801B052842
:101BE00005D920206065032084F83500F2E72068DD
:101BF0000068C007F0D12268116820480140D4E98C
:101C000001031843D4E90336334318436369184387
:101C1000A3691843E3691843236A18430843616AB8
:101C2000042903D1D4E90B13194308431060206839
:101C30004069666A20F0070130460E4301270428F8
:101C40000CD1A06A0643E06A40B12046FFF712FBC0
:101C500020B14020606584F83570BAE7206846619D
:101C60002046FFF7F3FA94F85C203F219140816011
:101C7000656584F835700020ACE700003F8010F007
:101C80002DE9F0410446866D90F8340000250128C6
:101C90000DD0012084F8340094F835700020012F15
:101CA00007D084F8340002252846BDE8F0810220E0
:101CB000FBE7022784F8357060652046FFF704FBD8
:101CC00094F85C103F208840B0602068016841F0C3
:101CD00016010160206C20B12068016841F0080104
:101CE00001602068016841F001010160DCE700004B
:101CF00070B5044600F060F90546601C02D0044847
:101D00000078044400F058F9401BA042FAD370BD9B
:101D1000180000202DE9F04186B014216846FEF736
:101D2000DBFB20480168002939D1012101601E48F0
:101D30000024016841F00101016000684FF48058FF
:101D400000F001000C27CDF80080CDE904700326D7
:101D500002250396CDE901546946144800F02EF897
:101D60004FF68070CDE9000502AA694682E8D000EE
:101D70000F4800F023F84CF23370CDE9000502AAB9
:101D8000694682E8D0000B4800F018F802AA6946BC
:101D900082E8D000CDE90085074800F00FF806B0D2
:101DA000BDE8F081100000203838024000140240E5
:101DB00000100240000C0240001802402DE9F84FCC
:101DC000DFF8BCA10022012503264FF00F090AF11C
:101DD000040BAAF1040E00BF0B6805FA02F42340BD
:101DE000A34270D10F7907F00307012F01D0022F12
:101DF00016D187684FEA420806FA08FC27EA0C0762
:101E0000D1F80CC00CFA08FC4CEA070CC0F808C06A
:101E10004768A7430C79C4F3001494403C434460E2
:101E20000C79E443A4070AD0C4684FEA420C06FACE
:101E30000CF7BC438F6807FA0CF72743C7600C798F
:101E400004F00304022C12D1D40800EB840CDCF85B
:101E500020405707FF0E09FA07F824EA0804D1F8D2
:101E6000108008FA07F848EA0408CCF820800468D3
:101E70004FEA420C06FA0CF7BC430F7907F0030750
:101E800007FA0CF7274307604C6814F4403F70D002
:101E90003C4C276847F480472760246822F00307FA
:101EA00004F480440094384C07EB040CDCF8084838
:101EB00097074FEA177809FA08F7BC43334FB8423F
:101EC00002D1002724E054E0314FB84201D101276C
:101ED0001EE0304FB84201D1022719E02E4FB84220
:101EE00001D1032714E02D4FB84201D104270FE0A0
:101EF0002B4FB84201D105270AE02A4FB84201D141
:101F0000062705E0284FB84201D1072700E008273F
:101F100007FA08F72743CCF80878DAF80040574664
:101F2000D1F804C09C435FEACC2C00D51C433C6034
:101F3000DBF800405F46D1F804C09C435FEA8C2C7C
:101F400000D51C433C60DEF800407746D1F804C061
:101F50009C435FEA8C3C00D51C433C60084F083F23
:101F60003C68D1F804C09C435FEACC3C00D51C43DC
:101F70003C60521C102AFFF42FAFBDE8F88F000020
:101F8000083C01404438024000300140000002405B
:101F90000004024000080240000C02400010024011
:101FA0000014024000180240001C02400AB1816186
:101FB00070470904FBE70000014880687047000093
:101FC0001800002070B5040025D094F83D000025CD
:101FD00020B984F83C50204600F0B8F8242084F85A
:101FE0003D002068016821F001010160206801685E
:101FF00041F4004101602068016821F40041016062
:1020000000F00CFA4D4A6168914201D84C4900E059
:102010004C49884201D2012070BD4B492368B0FB76
:10202000F1F15E6826F03F060E435E6063689342FE
:1020300006D94FF4967359434FF47A73B1FBF3F119
:102040002368491C1E6A26F03F0631431962616805
:10205000914210D84900401EB0FBF1F2521CC2F36D
:102060000B02042A01D2042022E0B0FBF1F0401C54
:10207000C0F30B001CE0A268F2B301EBC10303EB59
:102080000116431EB3FBF6F35B1C43F480431B05B0
:1020900049D092B301EBC10202EB0111401EB0FB2B
:1020A000F1F0401CC0F30B0040F4804040F40040CD
:1020B0002168CA694CF6FF739A431043C861D4E99A
:1020C000071001432068026822F0C002114301603A
:1020D000D4E9030101432068826848F2FF339A4340
:1020E00011438160D4E9050108432168CA6822F0E0
:1020F000FF021043C86001E00EE016E020680168AE
:1021000041F0010101602564202084F83D00256331
:1021100084F83E50002070BD01EB4106431EB3FB26
:10212000F6F35B1CB3E70120C2E701EB4101401E5F
:10213000B0FBF1F0401CC0F30B00B7E7A086010034
:1021400080841E0000093D0040420F0010B586B09B
:10215000044614216846FEF7BFF9134920688842F7
:102160001FD112480021026842F02002026000687C
:10217000122200F0200005900320CDE90210CDE9E5
:1021800000020420049069460948FFF717FE07483B
:102190001030016841F480010160006800F48000A3
:1021A000059006B010BD00000058004030380240D5
:1021B000001402400248816802781144816070472F
:1021C000180000200B4810B5016841F4007101604F
:1021D000016841F480610160016841F4807101602F
:1021E000032000F06FF80F2000F006F800F024F84C
:1021F000002010BD003C024070B50D4D04464FF468
:102200007A712878B1FBF0F00A490968B1FBF0F067
:1022100000F02AFB48B9102C07D200222146501E9C
:1022200000F030F800206C6070BD012070BD00002F
:1022300018000020240000200A4808B5016841F475
:1022400080410160006800F4804000900548001F54
:10225000016841F080510160006800F080500090FA
:1022600008BD000044380240002809DB00F01F02CE
:10227000012191404009800000F1E020C0F80011E8
:1022800070470000F0B40E4B1B680C46C3F30223EA
:10229000C3F10705042D00D90425191D072901D212
:1022A000002300E0DB1E012606FA05F1491E21404D
:1022B00099409E40761E16403143F0BC01F056B95D
:1022C0000CED00E0064900F0070208684FF6FF0336
:1022D000184040EA0220034A10430860704700009B
:1022E0000CED00E00000FA052DE9F0470E46050070
:1022F00065D0DFF81481D8F80000F7B200F00700CD
:10230000B04207D288F80070D8F8000000F007004B
:10231000B04254D128683D4C810712D5400703D5FF
:10232000206840F4E05020602878000703D520683A
:1023300040F4604020602068A96820F0F000084365
:1023400020602878C0072DD03049686808390128F6
:1023500012D0022813D0032811D009688907002958
:102360002DDA216821F0030101432160FFF724FEEB
:10237000814641F2883A0EE009688903EFE709686F
:102380008901ECE7FFF718FEA0EB0901514502D9DE
:102390000320BDE8F0872068696800F00C00B0EB0E
:1023A000810FEFD1D8F80010404601F00701B1428B
:1023B00007D90770006800F00700B04201D0012083
:1023C000E7E72878400705D52068E96820F4E05061
:1023D000084320602878000706D52068296920F482
:1023E000604040EAC100206000F028F82168084AF7
:1023F000C1F30311515CC8400649086006480068F3
:10240000FFF7FAFE0020C4E7003C02400838024013
:1024100096630008240000201C00002004480549A1
:1024200000680968044AC1F38221515CC8407047C2
:102430002400002008380240A6630008154810B5A3
:10244000006810F00C02144813D04110042A0FD079
:10245000082A0ED10F4C241F2268236802F03F0285
:102460005B0207D52068C0F38810A0FB010106E0DD
:10247000084610BD2168C1F38811A1FB00010023AB
:10248000FDF7F6FE2168C1F30141491C4900B0FB8C
:10249000F1F010BD083802400024F4002DE9F84F97
:1024A00004006ED02078DFF84C93C007A9F1040532
:1024B0004AD009F104000168C1F38101012908D063
:1024C0000068C0F3810002280AD1D9F80000400258
:1024D00006D52868800337D560680028E1D033E04E
:1024E0006068B0F5803F10D0B0F5A02F286810D0FC
:1024F00020F480302860286820F4802028606068FC
:10250000A8B1FFF759FD06460DE0286840F4803079
:10251000F4E740F480202860F7E700BFFFF74CFDA8
:10252000801B642873D828688003F7D50CE0FFF778
:1025300043FD064605E000BFFFF73EFD801B642813
:10254000F0D828688003F7D42078DFF8AC828007C1
:102550004FF0000A3ED5A748001D016811F00C0F8E
:1025600008D00068C0F3810002280BD1D9F8000020
:10257000400207D42868800716D5E068012800D1FA
:1025800012E033E1E068B8B10120C8F80000FFF7BD
:1025900013FD064605E000BFFFF70EFD801B022875
:1025A000C0D828688007F7D52868216920F0F8008E
:1025B00040EAC10028600DE0C8F800A0FFF7FCFC6D
:1025C000064604E0FFF7F8FC801B02281FD82868A5
:1025D0008007F7D42078000722D5864F87486169A5
:1025E000703771B101210160FFF7E6FC064604E097
:1025F000FFF7E2FC801B022809D838688007F7D56E
:102600000EE0C0F800A0FFF7D7FC064605E082E028
:10261000FFF7D2FC801B02287DD838688007F7D4EA
:102620002078400768D5DFF8CCB100270BF13C0BD0
:10263000DBF80000C0000BD4DBF8001041F0805143
:10264000CBF80010DBF80000012700F0805000906C
:102650006B4E3068C00510D4306840F48070306034
:10266000FFF7AAFC009005E0FFF7A6FC0099401ACE
:10267000022850D83068C005F6D55E4EA0686C368A
:1026800001280FD00528306810D020F001003060FC
:10269000306820F004003060A068B8B1FFF78CFC0F
:1026A00000900FE0306840F00100F4E740F00400D3
:1026B0003060F7E7FFF780FC0099411A41F288305B
:1026C000814266D830688007F4D50EE0FFF774FCCD
:1026D000009007E0FFF770FC0099411A41F2883042
:1026E000814256D830688007F4D42FB1DBF800104F
:1026F00021F08051CBF80010A069C8B33D49091DF5
:102700000968C1F3810102294AD00228504607D046
:10271000C8F8600000E03CE0FFF74EFC04463BE0F8
:102720004746C8F86000FFF747FC064605E000BFD3
:10273000FFF742FC801B02282BD828688001F7D4C1
:10274000D4E907010843A16A2E4A490802EB014176
:10275000626A41EA8211084394F82C1040EA016150
:10276000C9F8001001203866FFF726FC044606E091
:102770003EE000BFFFF720FC001B022809D82868B4
:102780008001F7D534E000BFFFF716FC001B0228DC
:1027900002D90320BDE8F88F28688001F4D427E02F
:1027A0000128F7D0D9F80000E26900F480019142D5
:1027B0001CD1226A00F03F01914217D147F6C07147
:1027C000626A0140B1EB821F10D1A26A4FF0FF3361
:1027D00000F4403103EB5202B1EB024F06D194F802
:1027E0002C1000F07060B0EB016F01D00120D1E738
:1027F0000020CFE70438024000004742800E4742E5
:10280000007000400000FFFF70B515460E46040042
:1028100003D094F8490010B107E0012070BD0020FA
:1028200084F84800204600F01DF804F108012068F3
:10283000FEF702FE3146A2682068FEF731FED4E9B9
:1028400001022946236BFEF7D9FD2168A06851F8E3
:10285000202042F0010241F82020012084F84900A4
:10286000002070BDFFF756BA10B5401EB0F1807F52
:1028700001D3012010BD4FF0E02460610F216017EB
:1028800000F074FE0020A06107202061002010BD30
:1028900010B590F83C20012A22D0012280F83C207B
:1028A000CA688C6822F4407222434C6822F4806229
:1028B00022430C6822F4006222430C6922F4805205
:1028C00022434C6922F400522243C969002322F4B6
:1028D00080420A4301684A6480F83C30002010BD01
:1028E000022010BD70B590F83C20012A32D001249E
:1028F00080F83C40022280F83D2003685A689D68B9
:1029000022F070060A6832435A60134B02689A42FA
:1029100014D0B2F1804F11D0104B9A420ED0104B10
:102920009A420BD00F4B9A4208D00F4B9A4205D0D7
:102930000E4B9A4202D00E4B9A4204D1496825F0C0
:1029400080031943916080F83D40002180F83C10DD
:10295000084670BD022070BD000001400004004028
:1029600000080040000C004000040140004001400D
:102970000018004010B5040003D094F83D0010B1D9
:1029800007E0012010BD002084F83C00204600F044
:102990001FF8022084F83D00211D206800F074FC1F
:1029A000012084F8460084F83E0084F83F0084F853
:1029B000400084F8410084F8420084F8430084F821
:1029C000440084F8450084F83D00002010BD00005C
:1029D00008B5104A01681048914207D1016841F0DA
:1029E00001010160006800F0010005E00B4A91421E
:1029F00004D10948001F04E0009008BD084A914234
:102A0000FBD1016841F002010160006800F00200A2
:102A1000F2E700000000014044380240000400409A
:102A20000004014090F83D10012901D001207047B9
:102A3000022180F83D1000681149884214D0B0F19D
:102A4000804F11D00F4988420ED00F4988420BD0D9
:102A50000E49884208D00E49884205D00D49884267
:102A600002D00D49884204D1816801F0070106298E
:102A700003D0016841F001010160002070470000AF
:102A8000000001400004004000080040000C00402D
:102A900000040140004001400018004070B50446A9
:102AA00090F83C000025012817D0012684F83C60EE
:102AB000022084F83D002068826822F0770222F428
:102AC0007F4282600868502838D00DDC20284FD023
:102AD00005DC90B3102811D14AE0022070BD3028E7
:102AE00046D040280AD13BE060282FD070280DD076
:102AF000B0F5805F03D0B0F5005F12D0012584F8F7
:102B00003D60002084F83C00284670BDCB68D1E9C8
:102B10000121206800F031FC2068816841F07701D4
:102B200009E0CB68D1E90121206800F026FC20688B
:102B3000816841F480418160E1E719E0CA68496831
:102B4000206800F0EFFC5021206806E0CA68496860
:102B5000206800F0F8FC6021206800F018FCCEE747
:102B6000CA684968206800F0DDFC40212068F4E76D
:102B7000226801461046F0E710B586B004461421DD
:102B80006846FDF7A9FC0E492068884216D10D4819
:102B90000021026842F001020260006800F00100BA
:102BA00005904FF4007000900220CDE90101012052
:102BB000CDE9031069460448FFF700F906B010BDDF
:102BC00000000140303802400000024070B5044669
:102BD00090F83C0000260D4601280FD0012084F813
:102BE0003C006AB1042A1DD0082A2FD00C2A3FD0FD
:102BF0000126002084F83C00304670BD022070BDE4
:102C0000206800F0CDFB2068816941F008018161F6
:102C10002068816921F004018161206881692A6945
:102C2000114311E0206800F0EBFB2068816941F45A
:102C3000006181612068816921F48061816120687F
:102C400081692A6941EA02218161D2E7206800F0A6
:102C50000DFC2068C16941F00801C1612068C169AB
:102C600021F00401C1612068C1692A69114311E0A2
:102C7000206800F02FFC2068C16941F40061C16147
:102C80002068C16921F48061C1612068C1692A6935
:102C900041EA0221C161ACE710B5040003D094F809
:102CA0003D0010B107E0012010BD002084F83C0079
:102CB000204600F01EF8022084F83D00211D206807
:102CC00000F0E2FA012084F8460084F83E0084F81F
:102CD0003F0084F8400084F8410084F8420084F802
:102CE000430084F8440084F8450084F83D00002047
:102CF00010BD704710B50446022249B104290ED018
:102D0000082913D094F84100012816D0012010BDE5
:102D100094F83E000128F9D184F83E200FE094F8A1
:102D20003F000128F2D184F83F2008E094F84000E9
:102D30000128EBD184F8402001E084F841200122F1
:102D4000206800F00DFB16492068164A884201D021
:102D5000904203D1436C43F40043436420688842AB
:102D600013D0B0F1804F10D00F4988420DD00F49D9
:102D700088420AD00E49884207D0904205D00D49BA
:102D8000884202D00C49884204D1816801F00701D1
:102D9000062903D0016841F001010160002010BD47
:102DA0000000014000040140000400400008004011
:102DB000000C00400040014000180040FEE7000009
:102DC0007FB500241548009401940294124903949D
:102DD000016001254FF480310561C0E901140476DA
:102DE00080F820400903C162C5614910C460816256
:102DF00080F830504561FEF71EFC08B1FEF7E2FA9C
:102E00000095CDE9015469460448FEF76BFB0028A4
:102E100001D0FEF7D7FA7FBD00200140300000202E
:102E20001CB500240C4900940A4801940860084627
:102E3000FEF77FFD08B1FEF7C5FA0C20CDE90004CE
:102E4000002269460448FEF718FD002801D0FEF76D
:102E5000B9FA1CBD00740040D8000020114808B524
:102E6000016841F480010160016801F48001009172
:102E7000016841F4001101600068002200F40010B4
:102E8000009011461020FFF7FDF91020FFF7ECF934
:102E9000002211463820FFF7F5F9BDE80840382038
:102EA000FFF7E2B93038024000B587B01C21684610
:102EB000FDF712FB16484FF0204110220160154922
:102EC0004160062181600021C160C0E90412816176
:102ED000C16113020162C0E90913C1620163416368
:102EE000816341640F20FF230090CDE90103CDE908
:102EF00003021120CDE90501002269460448FFF7CD
:102F000083FC002801D0FEF75DFA07B000BD000089
:102F10004C010020040100A070B586B01421684661
:102F2000FDF7DAFA2D480024016841F01001016034
:102F3000016801F010010591016841F02001016074
:102F4000016801F020010591016841F080010160F4
:102F5000016801F080010591016841F00101016003
:102F6000016801F001010591016841F0080101606B
:102F7000016801F008010591016841F0400101601C
:102F80000068174E00F0400005900022C021304636
:102F9000FFF70CF81020CDE90004694611480294AF
:102FA000FEF70CFFC02000900125CDE901546946D1
:102FB00030460394FEF702FF02200095CDE9014060
:102FC00069460948FEF7FAFE04208DE8310069469B
:102FD0000648FEF7F3FE06B070BD00003038024030
:102FE000001402400010024000000240000C0240A9
:102FF0000D4810B50B4901600C49416000214FF4A8
:1030000080428160C0E9031241618161C161016256
:10301000FEF7D8FF002803D0BDE81040FEF7D2B974
:1030200010BD0000005800409C010020A086010057
:1030300010B596B000240F94109411941294139428
:103040001C2108A81494FDF747FA20216846FDF7D3
:1030500043FA294827490160A721C0E9011440F239
:10306000E731C0E903148021C0E90541FFF782FC84
:1030700008B1FEF7A7F94FF480500F900FA91E4832
:10308000FFF70CFD08B1FEF79DF91B48FFF704FEA2
:1030900008B1FEF797F9139413A917481494FFF792
:1030A00021FC08B1FEF78EF96020CDE908040A94EE
:1030B0000B940C940D94042208A90F480E94FFF76A
:1030C00085FD08B1FEF77EF900944FF40050CDE97C
:1030D0000440029401940394694607480794FFF75B
:1030E000D7FB08B1FEF76EF90348FFF745FD16B0B0
:1030F00010BD000000000140F001002010B586B0B6
:1031000000241748009401940294039404941349F2
:10311000059401602921C0E901146321C0E9031469
:103120008461FFF727FC08B1FEF74CF94FF480509B
:10313000009069460A48FFF7B1FC08B1FEF742F972
:103140002020CDE9040404A90548FFF7CBFB0028A3
:1031500001D0FEF737F906B010BD000000040040B2
:103160003802002010B586B000241748009401945E
:1031700002940394049413490594C0E90014A72110
:10318000C0E9024180210461C0E90541FFF7F2FB7B
:1031900008B1FEF717F94FF48050009069460A48CD
:1031A000FFF77CFC08B1FEF70DF92020CDE90404FF
:1031B00004A90548FFF796FB002801D0FEF702F9A5
:1031C00006B010BD0004014080020020FEE7FEE7CB
:1031D00070477047FEF7EEBF30B593B030216846B8
:1031E000FDF77AF914210CA8FDF776F91D480025A2
:1031F000016841F080510160006800F0805011903A
:103200001948016841F4804101600068022400F41B
:103210008040119001200090000401908001CDE9D0
:10322000064008AA0420A82182E813000B906846F3
:10323000FFF734F908B172B6FEE70CA90F2081E858
:1032400031004FF4A0500F904FF4805010900521A2
:103250000CA8FFF749F8002801D072B6FEE713B0BA
:1032600030BD000040380240007000400248016854
:1032700041F470010160704788ED00E00148FEF7FD
:1032800024BB0000D8000020F0B50268294C2A4D6C
:103290002A4E2B4F2B4B4FF0804CA04209D060455B
:1032A00007D0A84205D0B04203D0B84201D098421E
:1032B00004D122F0700E4A6842EA0E02A0421BD0EE
:1032C000604519D0A84217D0B04215D0B84213D0EB
:1032D000984211D01C4DA8420ED01C4DA8420BD0D4
:1032E0001B4DA84208D01B4DA84205D01A4DA8423C
:1032F00002D01A4DA84203D122F44075CA682A436D
:103300004D6922F080022A4302608A68C2620A681C
:103310008262A04201D0984201D109690163012172
:1033200041610169C90703D0016921F0010101610F
:10333000F0BD000000000140000400400008004013
:10334000000C0040000401400040014000440140E6
:103350000048014000180040001C004000200040D0
:1033600010B501F01F030121046A99408C430462E7
:10337000016A9A401143016210BD10B5846842EAA7
:10338000032224F47F440A432243826010BD8268F2
:1033900022F070020A4342F007018160704700008A
:1033A000F0B5036A026A22F001020262426884698F
:1033B000124E24F073050C682C4323F002058B6831
:1033C0002B430D4DA84201D0B04205D123F0080790
:1033D000CB683B4323F00403A84201D0B04205D19F
:1033E0004D6922F4407215438A692A434260846120
:1033F000496841630362F0BD0000014000040140E0
:10340000F0B5026A036A23F010030362436884691B
:103410000D6824F4E64444EA05248D6822F0200275
:1034200042EA05120F4D104EA84201D0B04206D11B
:10343000CF6822F0800242EA071222F04002A8423E
:1034400001D0B04207D14D6923F4406343EA8503BC
:103450008D6943EA85034360846149688163026240
:10346000F0BD00000000014000040140F0B5026A18
:10347000036A23F4807303624368C46922F4007210
:1034800024F073050C68124E2C438D6842EA052225
:103490000E4DA84201D0B04206D1CF6822F400629E
:1034A00042EA072222F48062A84201D0B04207D14A
:1034B0004D6923F4405343EA05138D6943EA05132C
:1034C0004360C4614968C1630262F0BD000001400D
:1034D0000004014030B5046A026A22F4805202629C
:1034E0004268C3690D6823F4E64343EA05238D6807
:1034F00024F4005444EA0534084DA84202D0084D93
:10350000A84204D14D6922F4804242EA8512426009
:10351000C36149680164046230BD000000000140DD
:103520000004014010B5036A046A24F00104046237
:10353000846924F0F00444EA021423F00A020A43E6
:103540008461026210BD10B5036A046A24F010049D
:103550000462846923F0A00324F4704444EA023234
:1035600043EA01118261016210BDFEE70907090EFD
:10357000002804DB00F1E02080F80014704700F020
:103580000F0000F1E02080F8141D704710B52DEDFC
:10359000028BB1EEC08A18EE100A20F00040C0F194
:1035A000FF40C00F0AD010EE100A20F00040C0F11A
:1035B000FF40C00F04BF0120FCF7BDFFB0EE480A7A
:1035C000BDEC028B10BD0000F0B50D462DED028B59
:1035D00085B00646B0EE408A144614216846FCF7D2
:1035E0007BFF00EE104AD5ED000A0020B8EEC00ABD
:1035F0000146012304EBD47280EE801ADFED2F0A1E
:103600008DED001AB0EE601A19E000BF05EB8307DC
:10361000D7ED001AF4EEE01AF1EE10FA06DDB0EE86
:10362000601A0146F0EE610A184607E0F4EEC11A8E
:10363000F1EE10FA02DDB0EE611A19465B1CB3EB35
:10364000620FE3DB00EE100A14223046B8EEC00A27
:1036500060EE081A00EE104AB8EEC00A81EE802A29
:1036600000EE101A6946B8EEC00A60EE081A00EEC5
:10367000104A8DED012AB8EEC02A81EE820AF0EEE2
:10368000001A60EEA10A8DED030A00EE104AB8EEB2
:10369000C00A80EE802A00EE104A61EE210AB8EEE0
:1036A000C00A80EE801A8DED022A8DED041AFCF717
:1036B000E1FE05B0BDEC028BF0BD00000000000093
:1036C0000122D1030148FEF771BC00000004024052
:1036D00008B50021009040F23F1340F2DF12084687
:1036E00000F06EF808BD08B52920ADF80000BDF85F
:1036F00000004FF0D841A1F87E0008BD2DE9FC5F25
:10370000164698460C460546B04201D2701B00E0B2
:10371000A81B1FFA80F9444502D2A8EB040001E07F
:10372000A4EB08001FFA80FA4FF0FF30B54201D237
:10373000012100E001460191444500D20120834669
:10374000A9EB0A0007B2414630460C9A00F022F875
:10375000CAF10000009017E0214628460C9A00F0BC
:1037600019F87800009900B2884205DDA7EB0A013C
:103770000FB2019929448DB2484505DA07EB0900DB
:1037800007B204EB0B0084B2B542E5D14445E3D166
:10379000BDE8FC9F38B50D461446014602F08DFB8E
:1037A0002946084602F0C8FB02F00DFDADF80040C6
:1037B000BDF800004FF0D841A1F8800038BD0000EE
:1037C0002DE9F8430C461E46154680461146089FD3
:1037D00002F073FB3146204602F0AEFB02F0F3FC30
:1037E0004FF0D8410EE0404608E000BFADF8007051
:1037F000BDF80020A1F88020401C80B2A842F5D975
:10380000641CA4B2B442EED9BDE8F8832DE9F04FB0
:1038100095B014216846FCF75FFE1C2105A8FCF753
:103820005BFE1C210CA8FCF757FEC448002601686B
:1038300041F001010160006800F001001390BF48F1
:103840000838016841F020010160016801F02001A1
:103850001391016841F040010160016801F04001ED
:103860001391016841F008010160016801F008014D
:103870001391016841F008010160016801F008013D
:103880001391016841F008010160016801F008012D
:103890001391016841F008010160016801F008011D
:1038A0001391016841F008010160016801F008010D
:1038B0001391016841F008010160016801F00801FD
:1038C0001391016841F010010160016801F01001DD
:1038D0001391016841F010010160016801F01001CD
:1038E0001391016841F010010160016801F01001BD
:1038F0001391016841F010010160016801F01001AD
:103900001391016841F010010160016801F010019C
:103910001391016841F010010160016801F010018C
:103920001391016841F010010160016801F010017C
:103930001391016841F010010160016801F010016C
:103940001391016841F010010160016801F010015C
:103950001391016841F008010160016801F008015C
:103960001391016841F008010160016801F008014C
:103970001391016841F00801016000684FF480571D
:10398000022400F00800CDE9007413900C2569466C
:103990006B48CDE90345FEF711FACDE9007469469D
:1039A0006848CDE90345FEF709FA4FF0100ACDE962
:1039B00000A469466448CDE90345FEF7FFF92020DD
:1039C000CDE9000469466048CDE90345FEF7F6F904
:1039D0004FF48048CDE9008469465B48CDE9034552
:1039E000FEF7ECF94FF4004BCDE900B469465648B8
:1039F000CDE90345FEF7E2F90120CDE9000469466F
:103A00005148CDE90345FEF7D9F900940194694680
:103A10004D48CDE90345FEF7D1F98020CDE90004FA
:103A200069464A48CDE90345FEF7C8F9E001CDE90A
:103A3000000469464548CDE90345FEF7BFF9200279
:103A4000CDE9000469464148CDE90345FEF7B6F9E2
:103A50004FF48069CDE9009469463C48CDE90345BF
:103A6000FEF7ACF9A002CDE9000469463748CDE97C
:103A70000345FEF7A3F9CDE9007469463348CDE963
:103A80000345FEF79BF92003CDE9000469462F4862
:103A9000CDE90345FEF792F9CDE9008469462B484C
:103AA000CDE90345FEF78AF9CDE900B46946274818
:103AB000CDE90345FEF782F9E001CDE9000469464E
:103AC0002148CDE90345FEF779F92002CDE900044C
:103AD00069461D48CDE90345FEF770F9CDE900942C
:103AE00069461948CDE90345FEF768F918484FF0D3
:103AF00020410CAA0160174941600621C0E9021665
:103B0000C0E9046A8661C6610662C0E90967C0E966
:103B10000B684663866346640F2005903C20CDE920
:103B20000706CDE90B64CDE90E4605A908481296B3
:103B3000FEF76AFE15B0BDE8F08F0000383802408D
:103B40000014024000180240000C02400010024025
:103B5000F04A0020040100A030B587B01421684667
:103B6000FCF7BAFC3248016841F0020101600068CC
:103B70004FF4004400F0020005900120CDE9004020
:103B8000029002202B4D039069462846FEF716F955
:103B9000002221462846FEF709FAFFF737FED42017
:103BA000ADF80000BDF800004FF0D842A2F87E004A
:103BB000B2F88000B2F88000B2F880004FF6FF74CF
:103BC000B2F8801004EA0020C9B2014345F2103077
:103BD000814217D0D321ADF80010BDF8001022F8B3
:103BE0007E1F51885188518804EA01235188C9B247
:103BF0001943814206D0A1F5EE40963802D001204B
:103C000007B030BD0C4801804FF4A07141804FF4E3
:103C1000F071818000F012F8012002F071F9204665
:103C2000FFF756FDFFF75FFDFFF74AFD0020E7E7CE
:103C30003038024000040240280000202DE9F84FEF
:103C4000FE489627292600884425A0F5A6414FF076
:103C5000B6084FF0C1094FF0260B4FF0110A10398A
:103C60007ED0A0F5EE4196397BD1ADF800A0BDF82D
:103C700000004FF0D84424F87E0F7820FEF738F883
:103C80003623ADF80030BDF8000020804820ADF8A4
:103C90000000BDF8000060803A20ADF80000BDF8DB
:103CA000000020805520ADF80000BDF800006080C5
:103CB000F020ADF80000BDF800102180C321ADF860
:103CC0000010BDF800106180ADF80000BDF80010D4
:103CD0002180ADF80070BDF800106180B421ADF80E
:103CE0000010BDF8001021800121ADF80010BDF8D2
:103CF00000106180ADF80080BDF8001021800A211D
:103D0000ADF80010BDF800106180A221ADF80010E0
:103D1000BDF800106180B721ADF80010BDF80010AB
:103D20002180C621ADF80010BDF800106180B921D6
:103D3000ADF80010BDF8001021800221ADF8001090
:103D4000BDF800106180E021ADF80010BDF8002042
:103D50006280C022ADF80020BDF80020228001E082
:103D600039E136E18022ADF80020BDF80020628004
:103D70001622ADF80020BDF800706780ADF8009005
:103D8000BDF8007027801927ADF80070BDF800C09D
:103D9000A4F802C04FF0C20CADF800C0BDF800C0DE
:103DA000A4F800C04FF0A70CADF800C0BDF800C0EB
:103DB000A4F802C04FF0C50CADF800C0BDF800C0BB
:103DC000A4F800C0ADF80020BDF800206280E82211
:103DD000ADF80020BDF8002022804022ADF8002080
:103DE000BDF8002062808A22ADF80020BDF80020D6
:103DF00062800022ADF80020BDF800C0A4F802C027
:103E0000ADF80020BDF800206280ADF80060BDF87C
:103E100000206280ADF80070BDF800206280A5220D
:103E2000ADF80020BDF8002062803322ADF80020FC
:103E3000BDF800206280ADF80010BDF800102180B0
:103E4000ADF80000BDF8001061800721ADF800104A
:103E5000BDF8001061800D21ADF80010BDF8001014
:103E600061800421ADF80010BDF8001061800521CB
:103E7000ADF80010BDF8001061801421ADF80010FD
:103E8000BDF800206280ADF80030BDF800206280EF
:103E90005422ADF80020BDF8002062804C22ADF81D
:103EA0000020BDF8003063803823ADF80030BDF845
:103EB000003063801323ADF80030BDF8003063801C
:103EC000ADF80010BDF8003063802E23ADF800304F
:103ED000BDF8003063803423ADF80030BDF8003009
:103EE0006380E123ADF80030BDF800302380ADF8E9
:103EF0000000BDF8003063801023ADF80030BDF83D
:103F000000706780ADF80010BDF8001061800E21D0
:103F1000ADF80010BDF8001061800C21ADF8001064
:103F2000BDF8001061800821ADF80010BDF8001048
:103F300061803521ADF80010BDF800106180ADF84A
:103F40000050BDF800106180ADF80020BDF80010F1
:103F50006180ADF800B0BDF800106180ADF80030B0
:103F6000BDF8001061801221ADF80010BDF80010FE
:103F700061802C21ADF80010BDF800106180322165
:103F8000ADF80010BDF800106180ADF80000BDF87C
:103F9000001021803C21ADF80010BDF800106180B8
:103FA000ADF80000BDF8000020806920ADF80000E9
:103FB000BDF8000060807820FDF79AFE2120ADF862
:103FC0000000BDF800002080ADF80060BDF80000E2
:103FD0002080BDE8F88FED20ADF80000BDF800109E
:103FE0004FF0D840A0F87E100121ADF80010BDF8C8
:103FF0000010A0F88010FE21ADF80010BDF80010F0
:10400000A0F88010EE21ADF80010BDF80010A0F867
:104010007E10DE21ADF80010BDF80010A0F8801071
:104020002121ADF80010BDF80010A0F88010F1219A
:10403000ADF80010BDF8001002E0000028000020DC
:10404000A0F87E100121ADF80010BDF80010A0F816
:104050008010DF21ADF80010BDF80010A0F87E1030
:104060001021ADF80010BDF80010A0F88010C42198
:10407000ADF80010BDF80010A0F87E108F21ADF84B
:104080000010BDF80010A0F88010C621ADF8001097
:10409000BDF80010A0F87E100024ADF80040BDF877
:1040A0000010A0F880104FF0E20EADF800E0BDF86F
:1040B0000020A0F88020ADF800E0BDF80020A0F8B6
:1040C0008020ADF800E0BDF80010A0F88010BF21FE
:1040D000ADF80010BDF80010A0F87E10AA21ADF8D0
:1040E0000010BDF80010A0F88010B021ADF800104D
:1040F000BDF80010A0F87E100D21ADF80010BDF83D
:104100000010A0F88010ADF80040BDF80010A0F835
:1041100080100D21ADF80010BDF80010A0F880103F
:10412000ADF80040BDF80010A0F88010ADF800A078
:10413000BDF80010A0F88010ADF80040BDF80010E8
:10414000A0F880101921ADF80010BDF80010A0F8FB
:104150008010ADF80040BDF80010A0F880102121BB
:10416000ADF80010BDF80010A0F88010ADF80040C8
:10417000BDF80010A0F880102D21ADF80010BDF89A
:104180000010A0F88010ADF80040BDF80010A0F8B5
:1041900080103D21ADF80010BDF80010A0F880108F
:1041A000ADF80040BDF80010A0F880105D21ADF81A
:1041B0000010BDF80010A0F88010ADF80040BDF868
:1041C0000010A0F880105D21ADF80010BDF80010BF
:1041D000A0F88010ADF80040BDF80010A0F88010E5
:1041E000B121ADF80010BDF80010A0F87E108021BC
:1041F000ADF80010BDF80010A0F88010ADF8004038
:10420000BDF80010A0F880108B21ADF80010BDF8AB
:104210000010A0F88010ADF80040BDF80010A0F824
:104220008010ADF80070BDF80010A0F88010ADF857
:104230000040BDF80010A0F88010B221ADF80010C9
:10424000BDF80010A0F87E10ADF80040BDF80010D9
:10425000A0F88010ADF80040BDF80010A0F8801064
:104260000221ADF80010BDF80010A0F88010ADF8E4
:104270000040BDF80010A0F880100321ADF8001038
:10428000BDF80010A0F88010ADF80040BDF8001097
:10429000A0F88010B321ADF80010BDF80010A0F810
:1042A0007E10ADF80040BDF80010A0F88010ADF809
:1042B0000040BDF80010A0F88010ADF80040BDF837
:1042C0000010A0F88010ADF80040BDF80010A0F874
:1042D0008010ADF80040BDF80010A0F88010ADF8D7
:1042E0000040BDF80010A0F88010ADF80040BDF807
:1042F0000010A0F88010ADF80040BDF80010A0F844
:104300008010ADF80040BDF80010A0F88010ADF8A6
:104310000040BDF80010A0F88010ADF80040BDF8D6
:104320000010A0F88010ADF80040BDF80010A0F813
:104330008010ADF80040BDF80010A0F88010ADF876
:104340000040BDF80010A0F88010ADF80040BDF8A6
:104350000010A0F88010ADF80040BDF80010A0F8E3
:104360008010ADF80040BDF80010A0F88010ADF846
:104370000040BDF80010A0F88010ADF80040BDF876
:104380000010A0F88010ADF80040BDF80010A0F8B3
:104390008010ADF80040BDF80010A0F88010ADF816
:1043A0000040BDF80010A0F88010ADF80040BDF846
:1043B0000010A0F88010ADF80040BDF80010A0F883
:1043C0008010B421ADF80010BDF80010A0F87E10E8
:1043D0008B21ADF80010BDF80010A0F88010ADF8EA
:1043E0000040BDF80010A0F880109621ADF8001034
:1043F000BDF80010A0F88010ADF80040BDF8001026
:10440000A0F88010A121ADF80010BDF80010A0F8B0
:104410008010ADF80040BDF80010A0F88010B52164
:10442000ADF80010BDF80010A0F87E100221ADF824
:104430000010BDF80010A0F88010ADF80040BDF8E5
:104440000010A0F880100321ADF80010BDF8001096
:10445000A0F88010ADF80040BDF80010A0F8801062
:104460000422ADF80020BDF80010A0F88010ADF8CF
:104470000040BDF80010A0F88010ADF80080BDF835
:104480000010A0F87E10ADF80040BDF80010A0F8B4
:104490008010ADF80040BDF80010A0F88010B721E2
:1044A000ADF80010BDF80010A0F87E10ADF8004087
:1044B000BDF80010A0F88010ADF80040BDF8001065
:1044C000A0F880103F21ADF80010BDF80010A0F852
:1044D0008010ADF80040BDF80010A0F880105E21FB
:1044E000ADF80010BDF80010A0F88010ADF8004045
:1044F000BDF80010A0F880106421ADF80010BDF8E0
:104500000010A0F88010ADF80040BDF80010A0F831
:1045100080108C21ADF80010BDF80010A0F88010BC
:10452000ADF80040BDF80010A0F88010AC21ADF847
:104530000010BDF80010A0F88010ADF80040BDF8E4
:104540000010A0F88010DC21ADF80010BDF80010BC
:10455000A0F88010ADF80040BDF80010A0F8801061
:104560007021ADF80010BDF80010A0F88010ADF873
:104570000040BDF80010A0F880109021ADF80010A8
:10458000BDF80010A0F88010ADF80040BDF8001094
:10459000A0F88010EB21ADF80010BDF80010A0F8D5
:1045A0008010ADF80040BDF80010A0F88010DC21AC
:1045B000ADF80010BDF80010A0F88010ADF8004074
:1045C000BDF80010A0F88010B821ADF80010BDF8BB
:1045D0000010A0F87E10ADF80040BDF80010A0F863
:1045E0008010ADF80040BDF80010A0F88010ADF8C4
:1045F0000040BDF80010A0F88010ADF80040BDF8F4
:104600000010A0F88010ADF80040BDF80010A0F830
:104610008010ADF80040BDF80010A0F88010ADF893
:104620000040BDF80010A0F88010ADF80040BDF8C3
:104630000010A0F88010BA21ADF80010BDF80010ED
:10464000A0F87E102421ADF80010BDF80030A0F8CD
:104650008030ADF80040BDF80030A0F88030ADF8F3
:104660000040BDF80030A0F88030ADF80040BDF843
:104670000030A0F88030ADF80090BDF80030A0F810
:104680007E302023ADF80030BDF80030A0F8803037
:10469000ADF80040BDF80030A0F880305423ADF8EC
:1046A0000030BDF80030A0F88030ADF80040BDF813
:1046B0000030A0F88030FF23ADF80030BDF80030A6
:1046C000A0F88030ADF80040BDF80030A0F8803090
:1046D000C223ADF80030BDF80030A0F87E300A23C8
:1046E000ADF80030BDF80030A0F88030ADF80040E3
:1046F000BDF80030A0F88030ADF80020BDF80020F3
:10470000A0F88020ADF80040BDF80020A0F880207F
:10471000C322ADF80020BDF80020A0F87E203C2286
:10472000ADF80020BDF80030A0F88030ADF80040B2
:10473000BDF80030A0F880303A23ADF80030BDF865
:104740000030A0F88030ADF80040BDF80030A0F88F
:1047500080303923ADF80030BDF80030A0F880304B
:10476000ADF80040BDF80030A0F880303723ADF838
:104770000030BDF80030A0F88030ADF80040BDF842
:104780000030A0F88030ADF80020BDF80030A0F86F
:104790008030ADF80040BDF80030A0F880304FF018
:1047A000360CADF800C0BDF80030A0F88030ADF890
:1047B0000040BDF80030A0F880303223ADF8003062
:1047C000BDF80070A0F88070ADF80040BDF8007032
:1047D000A0F880702F27ADF80070BDF80070A0F829
:1047E0008070ADF80040BDF80070A0F880702C27F4
:1047F000ADF80070BDF80070A0F88070ADF8004012
:10480000BDF80070A0F88070ADF80060BDF80070D1
:10481000A0F88070ADF80040BDF80070A0F880707E
:10482000ADF800B0BDF80070A0F88070ADF80040A1
:10483000BDF80070A0F88070ADF80010BDF80070F1
:10484000A0F88070ADF80040BDF80070A0F880704E
:10485000ADF80010BDF80070A0F88070ADF8004011
:10486000BDF80070A0F880702327ADF80070BDF887
:104870000070A0F88070ADF80040BDF80070A0F89E
:104880008070ADF80020BDF80020A0F88020ADF8C1
:104890000040BDF80020A0F880203622ADF80020AE
:1048A000BDF80020A0F88020ADF80040BDF8002041
:1048B000A0F88020ADF80030BDF80020A0F88020DE
:1048C000ADF80040BDF80020A0F880202F22ADF800
:1048D0000020BDF80020A0F88020ADF80040BDF811
:1048E0000020A0F880202C22ADF80020BDF8002088
:1048F000A0F88020ADF80040BDF80020A0F880208E
:104900002922ADF80020BDF80020A0F88020ADF8E5
:104910000040BDF80020A0F880202622ADF800203D
:10492000BDF80020A0F88020ADF80040BDF80020C0
:10493000A0F88020ADF80010BDF80020A0F880207D
:10494000ADF80040BDF80020A0F88020ADF80010C0
:10495000BDF80010A0F88010ADF80040BDF80010C0
:10496000A0F880102321ADF80010BDF80010A0F8C9
:104970008010ADF80040BDF80010A0F88010C422EF
:10498000ADF80020BDF80010A0F87E104FF0620BCB
:10499000ADF800B0BDF80010A0F88010ADF80040F0
:1049A000BDF80010A0F880104FF00508ADF80080A9
:1049B000BDF80010A0F88010ADF80040BDF8001060
:1049C000A0F880108421ADF80010BDF80010A0F808
:1049D0008010ADF80040BDF80010A0F88010F02164
:1049E000ADF80010BDF80010A0F88010ADF8004040
:1049F000BDF80010A0F880101821ADF80010BDF827
:104A00000010A0F88010ADF80040BDF80010A0F82C
:104A10008010A421ADF80010BDF80010A0F880109F
:104A2000ADF80040BDF80010A0F880101821ADF8D6
:104A30000010BDF80010A0F88010ADF80040BDF8DF
:104A40000010A0F880105021ADF80010BDF8001043
:104A5000A0F88010ADF80040BDF80010A0F880105C
:104A60000C21ADF80010BDF80010A0F88010ADF8D2
:104A70000040BDF80010A0F880101721ADF800101C
:104A8000BDF80010A0F88010ADF80040BDF800108F
:104A9000A0F880109521ADF80010BDF80010A0F826
:104AA0008010ADF80040BDF80010A0F88010F32190
:104AB000ADF80010BDF80010A0F88010ADF800406F
:104AC000BDF80010A0F88010E621ADF80010BDF888
:104AD0000010A0F88010ADF80040BDF80010A0F85C
:104AE0008010C521ADF80010BDF80010A0F87E10B0
:104AF000ADF80030BDF80010A0F88010ADF800400F
:104B0000BDF80010A0F88010ADF80050BDF80010FE
:104B1000A0F88010ADF80040BDF80010A0F880109B
:104B20006521ADF80010BDF80010A0F88010ADF8B8
:104B30000040BDF80010A0F880107621ADF80010FC
:104B4000BDF80010A0F88010ADF80040BDF80010CE
:104B5000A0F880108821ADF80010BDF80010A0F872
:104B60008010ADF80040BDF80010A0F88010C621FC
:104B7000ADF80010BDF80010A0F87E102021ADF8AF
:104B80000010BDF80010A0F88010ADF80040BDF88E
:104B90000010A0F880101721ADF80010BDF800102B
:104BA000A0F88010ADF80040BDF80010A0F880100B
:104BB0000121ADF80010BDF80010A0F88010ADF88C
:104BC0000040BDF80010A0F88010C721ADF800101B
:104BD000BDF80010A0F87E10ADF80040BDF8001040
:104BE000A0F88010ADF80040BDF80010A0F88010CB
:104BF000ADF80040BDF80010A0F88010ADF80040FE
:104C0000BDF80010A0F88010C821ADF80010BDF864
:104C10000010A0F87E10ADF80040BDF80010A0F81C
:104C20008010ADF80040BDF80010A0F88010ADF87D
:104C30000040BDF80010A0F88010ADF80040BDF8AD
:104C40000010A0F88010C921ADF80010BDF80010C8
:104C5000A0F87E10ADF80040BDF80010A0F880105C
:104C6000ADF80040BDF80010A0F88010ADF800408D
:104C7000BDF80010A0F88010ADF80040BDF800109D
:104C8000A0F88010ADF80040BDF80010A0F880102A
:104C9000ADF80040BDF80010A0F88010ADF800405D
:104CA000BDF80010A0F88010ADF80040BDF800106D
:104CB000A0F88010ADF80040BDF80010A0F88010FA
:104CC000ADF80040BDF80010A0F88010ADF800402D
:104CD000BDF80010A0F88010ADF80040BDF800103D
:104CE000A0F88010ADF80040BDF80010A0F88010CA
:104CF000ADF80040BDF80010A0F88010ADF80040FD
:104D0000BDF80010A0F88010ADF80040BDF800100C
:104D1000A0F88010E021ADF80010BDF80030A0F838
:104D20007E301623ADF80030BDF80030A0F880309A
:104D3000ADF80040BDF80030A0F880301C23ADF87D
:104D40000030BDF80070A0F88070ADF80040BDF8EC
:104D50000070A0F880702127ADF80070BDF80070D9
:104D6000A0F88070ADF80040BDF80070A0F8807029
:104D7000ADF800C0BDF80070A0F88070ADF800403C
:104D8000BDF80070A0F880704627ADF80070BDF83F
:104D90000070A0F88070ADF80040BDF80070A0F879
:104DA00080705227ADF80070BDF80070A0F88070D8
:104DB000ADF80040BDF80070A0F880706427ADF831
:104DC0000070BDF80070A0F88070ADF80040BDF82C
:104DD0000070A0F880707A27ADF80070BDF8007000
:104DE000A0F88070ADF80040BDF80070A0F88070A9
:104DF0008B27ADF80070BDF80070A0F88070ADF89A
:104E00000040BDF80070A0F880709927ADF80070E0
:104E1000BDF80070A0F88070ADF80040BDF80070DB
:104E2000A0F88070A827ADF80070BDF80070A0F859
:104E30008070ADF80040BDF80070A0F88070B92710
:104E4000ADF80070BDF80070A0F88070ADF80040BB
:104E5000BDF80070A0F88070ADF80020BDF80070BB
:104E6000A0F88070ADF80040BDF80070A0F8807028
:104E7000CA27ADF80070BDF80070A0F88070ADF8DA
:104E80000040BDF80070A0F88070D227ADF8007027
:104E9000BDF80070A0F88070ADF80040BDF800705B
:104EA000A0F88070D927ADF80070BDF80070A0F8A8
:104EB0008070ADF80040BDF80070A0F88070ADF8CB
:104EC0000010BDF80070A0F88070ADF80040BDF88B
:104ED0000070A0F880704FF0F30CADF800C0BDF882
:104EE0000070A0F88070ADF80040BDF80070A0F828
:104EF0008070E127ADF80070BDF80070A0F87E70FA
:104F00001627ADF80070BDF80070A0F88070ADF8FD
:104F10000040BDF80070A0F88070ADF80030BDF81A
:104F20000070A0F88070ADF80040BDF80070A0F8E7
:104F300080702227ADF80070BDF80070A0F8807076
:104F4000ADF80040BDF80070A0F880703627ADF8CD
:104F50000070BDF80070A0F88070ADF80040BDF89A
:104F60000070A0F880704527ADF80070BDF80070A3
:104F7000A0F88070ADF80040BDF80070A0F8807017
:104F80005227ADF80070BDF80070A0F88070ADF841
:104F90000040BDF80070A0F880706427ADF8007084
:104FA000BDF80070A0F88070ADF80040BDF800704A
:104FB000A0F880707A27ADF80070BDF80070A0F8F6
:104FC0008070ADF80040BDF80070A0F880708B27AD
:104FD000ADF80070BDF80070A0F88070ADF800402A
:104FE000BDF80070A0F880709927ADF80070BDF88A
:104FF0000070A0F88070ADF80040BDF80070A0F817
:105000008070A827ADF80070BDF80070A0F880701F
:10501000ADF80040BDF80070A0F88070B927ADF879
:105020000070BDF80070A0F88070ADF80040BDF8C9
:105030000070A0F88070C427ADF80070BDF8007053
:10504000A0F88070ADF80040BDF80070A0F8807046
:10505000CA27ADF80070BDF80070A0F88070ADF8F8
:105060000040BDF80070A0F88070D227ADF8007045
:10507000BDF80070A0F88070ADF80040BDF8007079
:10508000A0F88070D827ADF80070BDF80070A0F8C7
:105090008070ADF80040BDF80070A0F88070ADF8E9
:1050A0000010BDF80010A0F88010ADF80040BDF869
:1050B0000010A0F88010ADF800C0BDF80010A0F8F6
:1050C0008010ADF80040BDF80010A0F88010ADF8D9
:1050D00000E0BDF80010A0F87E10ADF80080BDF82B
:1050E0000010A0F88010ADF80040BDF80010A0F846
:1050F00080100B21ADF80010BDF80010A0F8801052
:10510000ADF80040BDF80010A0F880101B21ADF8EC
:105110000010BDF80010A0F88010ADF80040BDF8F8
:105120000010A0F880103421ADF80010BDF8001078
:10513000A0F88010ADF80040BDF80010A0F8801075
:10514000ADF80050BDF80010A0F88010ADF8004098
:10515000BDF80010A0F880104F21ADF80010BDF888
:105160000010A0F88010ADF80040BDF80010A0F8C5
:1051700080106121ADF80010BDF80010A0F880107B
:10518000ADF80040BDF80010A0F880107921ADF80E
:105190000010BDF80010A0F88010ADF80040BDF878
:1051A0000010A0F880104FF08809ADF80090BDF80D
:1051B0000010A0F88010ADF80040BDF80010A0F875
:1051C00080104FF09708ADF80080BDF80010A0F8EF
:1051D0008010ADF80040BDF80010A0F880104FF02E
:1051E000A60EADF800E0BDF80010A0F88010ADF8F4
:1051F0000040BDF80010A0F88010B727ADF800708F
:10520000BDF80010A0F88010ADF80040BDF8001007
:10521000A0F88010C221ADF80010BDF80010A0F871
:105220008010ADF80040BDF80010A0F88010C72134
:10523000ADF80010BDF80010A0F88010ADF80040E7
:10524000BDF80010A0F88010D121ADF80010BDF815
:105250000010A0F88010ADF80040BDF80010A0F8D4
:105260008010D621ADF80010BDF80010A0F8801015
:10527000ADF80040BDF80010A0F88010DD21ADF8B9
:105280000010BDF80010A0F88010ADF80040BDF887
:105290000010A0F88010ADF800C0BDF80010A0F814
:1052A0008010ADF80040BDF80010A0F88010E32198
:1052B000ADF80010BDF80010A0F87E100521ADF883
:1052C0000010BDF80010A0F88010ADF80040BDF847
:1052D0000010A0F880100A21ADF80010BDF80010F1
:1052E000A0F88010ADF80040BDF80010A0F88010C4
:1052F000ADF80030BDF80010A0F88010ADF8004007
:10530000BDF80010A0F880103321ADF80010BDF8F2
:105310000010A0F88010ADF80040BDF80010A0F813
:105320008010ADF80050BDF80010A0F88010ADF866
:105330000040BDF80010A0F880105021ADF800101A
:10534000BDF80010A0F88010ADF80040BDF80010C6
:10535000A0F88010ADF800B0BDF80010A0F88010E3
:10536000ADF80040BDF80010A0F880107821ADF82D
:105370000010BDF80010A0F88010ADF80040BDF896
:105380000010A0F88010ADF80090BDF80010A0F853
:105390008010ADF80040BDF80010A0F88010ADF806
:1053A0000080BDF80010A0F88010ADF80040BDF8F6
:1053B0000010A0F88010ADF800E0BDF80010A0F8D3
:1053C0008010ADF80040BDF80010A0F88010ADF8D6
:1053D0000070BDF80010A0F88010ADF80040BDF8D6
:1053E0000010A0F88010C221ADF80010BDF8001028
:1053F000A0F88010ADF80040BDF80010A0F88010B3
:10540000C721ADF80010BDF80010A0F88010ADF86D
:105410000040BDF80010A0F88010D121ADF80010B8
:10542000BDF80010A0F88010ADF80040BDF80010E5
:10543000A0F88010D521ADF80010BDF80010A0F83C
:105440008010ADF80040BDF80010A0F88010DD21FC
:10545000ADF80010BDF80010A0F88010ADF80040C5
:10546000BDF80010A0F88010E6467146ADF800E0E7
:10547000BDF80030A0F88030ADF80040BDF8003035
:10548000A0F88030E423ADF80030BDF80030A0F87B
:105490007E300123ADF80030BDF80030A0F8803038
:1054A000ADF80040BDF80030A0F880300123ADF821
:1054B0000030BDF80030A0F88030ADF80040BDF8F5
:1054C0000030A0F880300223ADF80030BDF8003085
:1054D000A0F88030ADF80040BDF80030A0F8803072
:1054E0002A23ADF80030BDF80030A0F88030ADF8C8
:1054F0000040BDF80030A0F880303C23ADF800300B
:10550000BDF80030A0F88030ADF80040BDF80030A4
:10551000A0F880304B23ADF80030BDF80030A0F883
:105520008030ADF80040BDF80030A0F880305D2339
:10553000ADF80030BDF80030A0F88030ADF8004084
:10554000BDF80030A0F880307423ADF80030BDF80D
:105550000030A0F88030ADF80040BDF80030A0F871
:1055600080308423ADF80030BDF80030A0F88030E2
:10557000ADF80040BDF80030A0F880309323ADF8BE
:105580000030BDF80030A0F88030ADF80040BDF824
:105590000030A0F88030A223ADF80030BDF8003014
:1055A000A0F88030ADF80040BDF80030A0F88030A1
:1055B000B323ADF80030BDF80030A0F88030ADF86E
:1055C0000040BDF80030A0F88030BE23ADF80030B8
:1055D000BDF80030A0F88030ADF80040BDF80030D4
:1055E000A0F88030ADF80020BDF80020A0F88020A1
:1055F000ADF80040BDF80020A0F88020CD22ADF825
:105600000020BDF80020A0F88020ADF80040BDF8D3
:105610000020A0F88020D322ADF80020BDF80020A3
:10562000A0F88020ADF80040BDF80020A0F8802050
:10563000DD22ADF80020BDF80020A0F88020ADF8F4
:105640000040BDF80020A0F88020ADF80010BDF8A3
:105650000020A0F88020ADF80040BDF80020A0F8A0
:105660008020E522ADF80020BDF80020A0F87E20C3
:10567000ADF80040BDF80020A0F88020ADF8004053
:10568000BDF80020A0F88020ADF80040BDF8002053
:10569000A0F88020ADF80040BDF80020A0F88020E0
:1056A0000222ADF80020BDF80020A0F88020ADF85F
:1056B0000040BDF80020A0F88020ADF80060BDF8E3
:1056C0000020A0F88020ADF80040BDF80020A0F830
:1056D00080203C22ADF80020BDF80020A0F88020FA
:1056E000ADF80040BDF80020A0F880204B22ADF8B6
:1056F0000020BDF80020A0F88020ADF80040BDF8E3
:105700000020A0F880205D22ADF80020BDF8002028
:10571000A0F88020ADF80040BDF80020A0F880205F
:105720007422ADF80020BDF80020A0F88020ADF86C
:105730000040BDF80020A0F880208422ADF80020B1
:10574000BDF80020A0F88020ADF80040BDF8002092
:10575000A0F880209322ADF80020BDF80020A0F82A
:105760008020ADF80040BDF80020A0F88020A222E3
:10577000ADF80020BDF80020A0F88020ADF8004072
:10578000BDF80020A0F88020B322ADF80020BDF8BD
:105790000020A0F88020ADF80040BDF80020A0F85F
:1057A0008020BE22ADF80020BDF80020A0F88020A7
:1057B000ADF80040BDF80020A0F88020C422ADF86C
:1057C0000020BDF80020A0F88020ADF80040BDF812
:1057D0000020A0F88020CD22ADF80020BDF80020E8
:1057E000A0F88020ADF80040BDF80020A0F880208F
:1057F000D322ADF80020BDF80020A0F88020ADF83D
:105800000040BDF80020A0F88020DC22ADF8002088
:10581000BDF80020A0F88020ADF80040BDF80020C1
:10582000A0F88020ADF80010BDF80010A0F880109E
:10583000ADF80040BDF80010A0F88010E621ADF8EA
:105840000010BDF80010A0F87E101121ADF8001076
:10585000BDF80010A0F88010ADF80040BDF80010B1
:10586000A0F880103421ADF80010BDF80010A0F8A9
:105870008010ADF80040BDF80010A0F880104FF087
:10588000560BADF800B0BDF80010A0F88010ADF8D0
:105890000040BDF80010A0F880104FF0760CADF875
:1058A00000C0BDF80010A0F88010ADF80040BDF8B1
:1058B0000010A0F880107721ADF80010BDF800109E
:1058C000A0F88010ADF80040BDF80010A0F88010DE
:1058D0006621ADF80010BDF80010A0F88010ADF8FA
:1058E0000040BDF80010A0F880108821ADF800102D
:1058F000BDF80010A0F88010ADF80040BDF8001011
:10590000A0F880109921ADF80010BDF80020A0F893
:105910008020ADF80040BDF80020A0F88020BB2317
:10592000ADF80030BDF80020A0F88020ADF80040B0
:10593000BDF80020A0F88020ADF80010BDF80020D0
:10594000A0F88020ADF80040BDF80020A0F880202D
:105950006622ADF80020BDF80020A0F88020ADF848
:105960000040BDF80020A0F880204FF05508ADF8A9
:105970000080BDF80020A0F88020ADF80040BDF800
:105980000020A0F88020ADF80080BDF80020A0F82D
:105990008020ADF80040BDF80020074627F8802F92
:1059A0004FF0450AADF800A0BDF8000027F8020945
:1059B000ADF80040BDF8000078804320ADF800004D
:1059C000BDF800007880ADF80040BDF80000788098
:1059D000ADF80050BDF800007880ADF80040BDF88B
:1059E00000007880E720ADF80000BDF800003880A6
:1059F0003220ADF80000BDF800007880ADF800401E
:105A0000BDF800007880ADF80080BDF80000788017
:105A1000ADF80040BDF800007880ADF800C0BDF8DA
:105A200000007880ADF80040BDF800007880662066
:105A3000ADF80000BDF800207A80ADF80040BDF858
:105A400000207A804FF0670CADF800C0BDF8002050
:105A50007A80ADF80040BDF800207A80ADF800C033
:105A6000BDF800207A80ADF80040BDF800207A80B3
:105A70004FF0870CADF800C0BDF800207A80ADF87B
:105A80000040BDF800207A80ADF80010BDF800207D
:105A90007A80ADF80040BDF800207A80BB22ADF8D6
:105AA0000020BDF800207A80ADF80040BDF800204D
:105AB0007A80ADF80010BDF800207A80ADF8004083
:105AC000BDF800207A807722ADF80020BDF80030C4
:105AD0007B80ADF80040BDF800307B80ADF8005011
